{
  "contractName": "CrowdFunding",
  "abi": [
    {
      "inputs": [
        {
          "internalType": "string",
          "name": "_name",
          "type": "string"
        },
        {
          "internalType": "uint256",
          "name": "_target",
          "type": "uint256"
        },
        {
          "internalType": "uint256",
          "name": "_price",
          "type": "uint256"
        },
        {
          "internalType": "uint256",
          "name": "_period",
          "type": "uint256"
        },
        {
          "internalType": "address",
          "name": "_manager",
          "type": "address"
        },
        {
          "internalType": "bool",
          "name": "_consent",
          "type": "bool"
        },
        {
          "internalType": "address",
          "name": "_parent",
          "type": "address"
        }
      ],
      "stateMutability": "nonpayable",
      "type": "constructor"
    },
    {
      "inputs": [],
      "name": "current",
      "outputs": [
        {
          "internalType": "uint256",
          "name": "",
          "type": "uint256"
        }
      ],
      "stateMutability": "view",
      "type": "function"
    },
    {
      "inputs": [],
      "name": "endAt",
      "outputs": [
        {
          "internalType": "uint256",
          "name": "",
          "type": "uint256"
        }
      ],
      "stateMutability": "view",
      "type": "function"
    },
    {
      "inputs": [],
      "name": "investorsCount",
      "outputs": [
        {
          "internalType": "uint256",
          "name": "",
          "type": "uint256"
        }
      ],
      "stateMutability": "view",
      "type": "function"
    },
    {
      "inputs": [],
      "name": "manager",
      "outputs": [
        {
          "internalType": "address",
          "name": "",
          "type": "address"
        }
      ],
      "stateMutability": "view",
      "type": "function"
    },
    {
      "inputs": [],
      "name": "name",
      "outputs": [
        {
          "internalType": "string",
          "name": "",
          "type": "string"
        }
      ],
      "stateMutability": "view",
      "type": "function"
    },
    {
      "inputs": [],
      "name": "parent",
      "outputs": [
        {
          "internalType": "address",
          "name": "",
          "type": "address"
        }
      ],
      "stateMutability": "view",
      "type": "function"
    },
    {
      "inputs": [],
      "name": "price",
      "outputs": [
        {
          "internalType": "uint256",
          "name": "",
          "type": "uint256"
        }
      ],
      "stateMutability": "view",
      "type": "function"
    },
    {
      "inputs": [],
      "name": "target",
      "outputs": [
        {
          "internalType": "uint256",
          "name": "",
          "type": "uint256"
        }
      ],
      "stateMutability": "view",
      "type": "function"
    },
    {
      "inputs": [],
      "name": "invest",
      "outputs": [],
      "stateMutability": "payable",
      "type": "function"
    },
    {
      "inputs": [],
      "name": "getBalance",
      "outputs": [
        {
          "internalType": "uint256",
          "name": "",
          "type": "uint256"
        }
      ],
      "stateMutability": "view",
      "type": "function"
    },
    {
      "inputs": [],
      "name": "getInvstors",
      "outputs": [
        {
          "components": [
            {
              "internalType": "address",
              "name": "addr",
              "type": "address"
            },
            {
              "internalType": "uint256",
              "name": "amount",
              "type": "uint256"
            }
          ],
          "internalType": "struct CrowdFunding.Investor[]",
          "name": "",
          "type": "tuple[]"
        }
      ],
      "stateMutability": "view",
      "type": "function"
    },
    {
      "inputs": [],
      "name": "failRefund",
      "outputs": [],
      "stateMutability": "nonpayable",
      "type": "function"
    },
    {
      "inputs": [
        {
          "internalType": "uint256",
          "name": "index",
          "type": "uint256"
        },
        {
          "internalType": "enum CrowdFunding.VoteStatus",
          "name": "r",
          "type": "uint8"
        }
      ],
      "name": "vote",
      "outputs": [],
      "stateMutability": "nonpayable",
      "type": "function"
    },
    {
      "inputs": [
        {
          "internalType": "string",
          "name": "_reason",
          "type": "string"
        },
        {
          "internalType": "uint256",
          "name": "_amount",
          "type": "uint256"
        },
        {
          "internalType": "address",
          "name": "_receiver",
          "type": "address"
        }
      ],
      "name": "applyExpense",
      "outputs": [],
      "stateMutability": "nonpayable",
      "type": "function"
    },
    {
      "inputs": [
        {
          "internalType": "uint256",
          "name": "index",
          "type": "uint256"
        }
      ],
      "name": "execExpense",
      "outputs": [],
      "stateMutability": "payable",
      "type": "function"
    },
    {
      "inputs": [],
      "name": "terminate",
      "outputs": [],
      "stateMutability": "nonpayable",
      "type": "function"
    },
    {
      "inputs": [],
      "name": "getInvestorsCount",
      "outputs": [
        {
          "internalType": "uint256",
          "name": "",
          "type": "uint256"
        }
      ],
      "stateMutability": "view",
      "type": "function"
    },
    {
      "inputs": [],
      "name": "getExpenseCount",
      "outputs": [
        {
          "internalType": "uint256",
          "name": "",
          "type": "uint256"
        }
      ],
      "stateMutability": "view",
      "type": "function"
    },
    {
      "inputs": [
        {
          "internalType": "uint256",
          "name": "_index",
          "type": "uint256"
        }
      ],
      "name": "getExpnseByIndex",
      "outputs": [
        {
          "internalType": "string",
          "name": "",
          "type": "string"
        },
        {
          "internalType": "uint256",
          "name": "",
          "type": "uint256"
        },
        {
          "internalType": "address",
          "name": "",
          "type": "address"
        },
        {
          "internalType": "enum CrowdFunding.ExpenseStatus",
          "name": "",
          "type": "uint8"
        },
        {
          "internalType": "uint256",
          "name": "",
          "type": "uint256"
        }
      ],
      "stateMutability": "view",
      "type": "function"
    },
    {
      "inputs": [],
      "name": "getInfo",
      "outputs": [
        {
          "internalType": "address",
          "name": "",
          "type": "address"
        },
        {
          "internalType": "string",
          "name": "",
          "type": "string"
        },
        {
          "internalType": "uint256",
          "name": "",
          "type": "uint256"
        },
        {
          "internalType": "uint256",
          "name": "",
          "type": "uint256"
        },
        {
          "internalType": "uint256",
          "name": "",
          "type": "uint256"
        },
        {
          "internalType": "uint256",
          "name": "",
          "type": "uint256"
        },
        {
          "components": [
            {
              "internalType": "address",
              "name": "addr",
              "type": "address"
            },
            {
              "internalType": "uint256",
              "name": "amount",
              "type": "uint256"
            }
          ],
          "internalType": "struct CrowdFunding.Investor[]",
          "name": "",
          "type": "tuple[]"
        },
        {
          "internalType": "uint256",
          "name": "",
          "type": "uint256"
        },
        {
          "internalType": "uint256",
          "name": "",
          "type": "uint256"
        },
        {
          "internalType": "bool",
          "name": "",
          "type": "bool"
        },
        {
          "internalType": "bool",
          "name": "",
          "type": "bool"
        },
        {
          "internalType": "address",
          "name": "",
          "type": "address"
        }
      ],
      "stateMutability": "view",
      "type": "function"
    },
    {
      "inputs": [
        {
          "internalType": "string",
          "name": "a",
          "type": "string"
        },
        {
          "internalType": "string",
          "name": "b",
          "type": "string"
        }
      ],
      "name": "strConcat",
      "outputs": [
        {
          "internalType": "string",
          "name": "",
          "type": "string"
        }
      ],
      "stateMutability": "pure",
      "type": "function"
    }
  ],
  "bytecode": "0x60806040523480156200001157600080fd5b5060405162002d0a38038062002d0a83398181016040528101906200003791906200047c565b826000806101000a81548173ffffffffffffffffffffffffffffffffffffffff021916908373ffffffffffffffffffffffffffffffffffffffff16021790555086600290805190602001906200008f92919062000152565b5066038d7ea4c6800086620000a591906200057d565b60038190555066038d7ea4c6800085620000c091906200057d565b6004819055506201518084620000d791906200057d565b42620000e49190620005de565b60058190555081600c60006101000a81548160ff02191690831515021790555080600160006101000a81548173ffffffffffffffffffffffffffffffffffffffff021916908373ffffffffffffffffffffffffffffffffffffffff16021790555050505050505050620006a0565b82805462000160906200066a565b90600052602060002090601f016020900481019282620001845760008555620001d0565b82601f106200019f57805160ff1916838001178555620001d0565b82800160010185558215620001d0579182015b82811115620001cf578251825591602001919060010190620001b2565b5b509050620001df9190620001e3565b5090565b5b80821115620001fe576000816000905550600101620001e4565b5090565b6000604051905090565b600080fd5b600080fd5b600080fd5b600080fd5b6000601f19601f8301169050919050565b7f4e487b7100000000000000000000000000000000000000000000000000000000600052604160045260246000fd5b6200026b8262000220565b810181811067ffffffffffffffff821117156200028d576200028c62000231565b5b80604052505050565b6000620002a262000202565b9050620002b0828262000260565b919050565b600067ffffffffffffffff821115620002d357620002d262000231565b5b620002de8262000220565b9050602081019050919050565b60005b838110156200030b578082015181840152602081019050620002ee565b838111156200031b576000848401525b50505050565b6000620003386200033284620002b5565b62000296565b9050828152602081018484840111156200035757620003566200021b565b5b62000364848285620002eb565b509392505050565b600082601f83011262000384576200038362000216565b5b81516200039684826020860162000321565b91505092915050565b6000819050919050565b620003b4816200039f565b8114620003c057600080fd5b50565b600081519050620003d481620003a9565b92915050565b600073ffffffffffffffffffffffffffffffffffffffff82169050919050565b60006200040782620003da565b9050919050565b6200041981620003fa565b81146200042557600080fd5b50565b60008151905062000439816200040e565b92915050565b60008115159050919050565b62000456816200043f565b81146200046257600080fd5b50565b60008151905062000476816200044b565b92915050565b600080600080600080600060e0888a0312156200049e576200049d6200020c565b5b600088015167ffffffffffffffff811115620004bf57620004be62000211565b5b620004cd8a828b016200036c565b9750506020620004e08a828b01620003c3565b9650506040620004f38a828b01620003c3565b9550506060620005068a828b01620003c3565b9450506080620005198a828b0162000428565b93505060a06200052c8a828b0162000465565b92505060c06200053f8a828b0162000428565b91505092959891949750929550565b7f4e487b7100000000000000000000000000000000000000000000000000000000600052601160045260246000fd5b60006200058a826200039f565b915062000597836200039f565b9250817fffffffffffffffffffffffffffffffffffffffffffffffffffffffffffffffff0483118215151615620005d357620005d26200054e565b5b828202905092915050565b6000620005eb826200039f565b9150620005f8836200039f565b9250827fffffffffffffffffffffffffffffffffffffffffffffffffffffffffffffffff0382111562000630576200062f6200054e565b5b828201905092915050565b7f4e487b7100000000000000000000000000000000000000000000000000000000600052602260045260246000fd5b600060028204905060018216806200068357607f821691505b602082108114156200069a57620006996200063b565b5b50919050565b61265a80620006b06000396000f3fe60806040526004361061012a5760003560e01c80638d8231ff116100ab578063bcf04ea31161006f578063bcf04ea314610384578063d4b83992146103af578063d58cf8a1146103da578063e8b5e51f1461041b578063ed21187a14610425578063ff74927b146104505761012a565b80638d8231ff146102c5578063943e8216146102dc5780639fa6a6e314610305578063a035b1fe14610330578063a180952e1461035b5761012a565b8063481c6a75116100f2578063481c6a75146101f25780635a9b0b891461021d57806360f96a8f1461025357806374dbd0c31461027e5780637cc3ae8c1461029a5761012a565b806306fdde031461012f5780630c08bf881461015a57806312065fe014610171578063221c21c91461019c5780632b711051146101c7575b600080fd5b34801561013b57600080fd5b5061014461048d565b6040516101519190611953565b60405180910390f35b34801561016657600080fd5b5061016f61051b565b005b34801561017d57600080fd5b5061018661061e565b604051610193919061198e565b60405180910390f35b3480156101a857600080fd5b506101b1610626565b6040516101be9190611ad7565b60405180910390f35b3480156101d357600080fd5b506101dc6106e5565b6040516101e9919061198e565b60405180910390f35b3480156101fe57600080fd5b506102076106eb565b6040516102149190611b08565b60405180910390f35b34801561022957600080fd5b5061023261070f565b60405161024a9c9b9a99989796959493929190611b3e565b60405180910390f35b34801561025f57600080fd5b506102686108e7565b6040516102759190611b08565b60405180910390f35b61029860048036038101906102939190611c46565b61090d565b005b3480156102a657600080fd5b506102af610bbd565b6040516102bc919061198e565b60405180910390f35b3480156102d157600080fd5b506102da610bc3565b005b3480156102e857600080fd5b5061030360048036038101906102fe9190611c98565b610d6b565b005b34801561031157600080fd5b5061031a610f6f565b604051610327919061198e565b60405180910390f35b34801561033c57600080fd5b50610345610f75565b604051610352919061198e565b60405180910390f35b34801561036757600080fd5b50610382600480360381019061037d9190611e39565b610f7b565b005b34801561039057600080fd5b506103996111b5565b6040516103a6919061198e565b60405180910390f35b3480156103bb57600080fd5b506103c46111bf565b6040516103d1919061198e565b60405180910390f35b3480156103e657600080fd5b5061040160048036038101906103fc9190611c46565b6111c5565b604051610412959493929190611f1f565b60405180910390f35b6104236112cc565b005b34801561043157600080fd5b5061043a6115eb565b604051610447919061198e565b60405180910390f35b34801561045c57600080fd5b5061047760048036038101906104729190611f79565b6115f8565b6040516104849190611953565b60405180910390f35b6002805461049a90612020565b80601f01602080910402602001604051908101604052809291908181526020018280546104c690612020565b80156105135780601f106104e857610100808354040283529160200191610513565b820191906000526020600020905b8154815290600101906020018083116104f657829003601f168201915b505050505081565b60008054906101000a900473ffffffffffffffffffffffffffffffffffffffff1673ffffffffffffffffffffffffffffffffffffffff163373ffffffffffffffffffffffffffffffffffffffff1614806105c25750600160009054906101000a900473ffffffffffffffffffffffffffffffffffffffff1673ffffffffffffffffffffffffffffffffffffffff163373ffffffffffffffffffffffffffffffffffffffff16145b610601576040517f08c379a00000000000000000000000000000000000000000000000000000000081526004016105f8906120c4565b60405180910390fd5b6001600c60016101000a81548160ff021916908315150217905550565b600047905090565b60606007805480602002602001604051908101604052809291908181526020016000905b828210156106dc57838290600052602060002090600202016040518060400160405290816000820160009054906101000a900473ffffffffffffffffffffffffffffffffffffffff1673ffffffffffffffffffffffffffffffffffffffff1673ffffffffffffffffffffffffffffffffffffffff1681526020016001820154815250508152602001906001019061064a565b50505050905090565b60085481565b60008054906101000a900473ffffffffffffffffffffffffffffffffffffffff1681565b60006060600080600080606060008060008060008060009054906101000a900473ffffffffffffffffffffffffffffffffffffffff1660026003546006546004546005546007600854600b54600c60009054906101000a900460ff16600c60019054906101000a900460ff16308a805461078890612020565b80601f01602080910402602001604051908101604052809291908181526020018280546107b490612020565b80156108015780601f106107d657610100808354040283529160200191610801565b820191906000526020600020905b8154815290600101906020018083116107e457829003601f168201915b50505050509a5085805480602002602001604051908101604052809291908181526020016000905b828210156108bb57838290600052602060002090600202016040518060400160405290816000820160009054906101000a900473ffffffffffffffffffffffffffffffffffffffff1673ffffffffffffffffffffffffffffffffffffffff1673ffffffffffffffffffffffffffffffffffffffff16815260200160018201548152505081526020019060010190610829565b5050505095509b509b509b509b509b509b509b509b509b509b509b509b50909192939495969798999a9b565b600160009054906101000a900473ffffffffffffffffffffffffffffffffffffffff1681565b60008054906101000a900473ffffffffffffffffffffffffffffffffffffffff1673ffffffffffffffffffffffffffffffffffffffff163373ffffffffffffffffffffffffffffffffffffffff1614806109b45750600160009054906101000a900473ffffffffffffffffffffffffffffffffffffffff1673ffffffffffffffffffffffffffffffffffffffff163373ffffffffffffffffffffffffffffffffffffffff16145b6109f3576040517f08c379a00000000000000000000000000000000000000000000000000000000081526004016109ea906120c4565b60405180910390fd5b600060096000838152602001908152602001600020905060006002811115610a1e57610a1d611ea8565b5b8160020160149054906101000a900460ff166002811115610a4257610a41611ea8565b5b14610a82576040517f08c379a0000000000000000000000000000000000000000000000000000000008152600401610a7990612130565b60405180910390fd5b60085460028260030154610a96919061217f565b11610ad6576040517f08c379a0000000000000000000000000000000000000000000000000000000008152600401610acd90612225565b60405180910390fd5b8060010154471015610b1d576040517f08c379a0000000000000000000000000000000000000000000000000000000008152600401610b1490612291565b60405180910390fd5b60018160020160146101000a81548160ff02191690836002811115610b4557610b44611ea8565b5b02179055508060020160009054906101000a900473ffffffffffffffffffffffffffffffffffffffff1673ffffffffffffffffffffffffffffffffffffffff166108fc82600101549081150290604051600060405180830381858888f19350505050158015610bb8573d6000803e3d6000fd5b505050565b60055481565b60008054906101000a900473ffffffffffffffffffffffffffffffffffffffff1673ffffffffffffffffffffffffffffffffffffffff163373ffffffffffffffffffffffffffffffffffffffff161480610c6a5750600160009054906101000a900473ffffffffffffffffffffffffffffffffffffffff1673ffffffffffffffffffffffffffffffffffffffff163373ffffffffffffffffffffffffffffffffffffffff16145b610ca9576040517f08c379a0000000000000000000000000000000000000000000000000000000008152600401610ca0906120c4565b60405180910390fd5b60005b600780549050811015610d5a5760078181548110610ccd57610ccc6122b1565b5b906000526020600020906002020160000160009054906101000a900473ffffffffffffffffffffffffffffffffffffffff1673ffffffffffffffffffffffffffffffffffffffff166108fc6004549081150290604051600060405180830381858888f19350505050158015610d46573d6000803e3d6000fd5b508080610d52906122e0565b915050610cac565b5060076000610d6991906117ad565b565b60006009600084815260200190815260200160002090506000600a60003373ffffffffffffffffffffffffffffffffffffffff1673ffffffffffffffffffffffffffffffffffffffff1681526020019081526020016000205411610e04576040517f08c379a0000000000000000000000000000000000000000000000000000000008152600401610dfb90612375565b60405180910390fd5b60006002811115610e1857610e17611ea8565b5b8160040160003373ffffffffffffffffffffffffffffffffffffffff1673ffffffffffffffffffffffffffffffffffffffff16815260200190815260200160002060009054906101000a900460ff166002811115610e7957610e78611ea8565b5b14610eb9576040517f08c379a0000000000000000000000000000000000000000000000000000000008152600401610eb0906123e1565b60405180910390fd5b818160040160003373ffffffffffffffffffffffffffffffffffffffff1673ffffffffffffffffffffffffffffffffffffffff16815260200190815260200160002060006101000a81548160ff02191690836002811115610f1d57610f1c611ea8565b5b021790555060016002811115610f3657610f35611ea8565b5b826002811115610f4957610f48611ea8565b5b1415610f6a57806003016000815480929190610f64906122e0565b91905055505b505050565b60065481565b60045481565b60008054906101000a900473ffffffffffffffffffffffffffffffffffffffff1673ffffffffffffffffffffffffffffffffffffffff163373ffffffffffffffffffffffffffffffffffffffff1614806110225750600160009054906101000a900473ffffffffffffffffffffffffffffffffffffffff1673ffffffffffffffffffffffffffffffffffffffff163373ffffffffffffffffffffffffffffffffffffffff16145b611061576040517f08c379a0000000000000000000000000000000000000000000000000000000008152600401611058906120c4565b60405180910390fd5b600c60009054906101000a900460ff166110cd5781471161108157600080fd5b8073ffffffffffffffffffffffffffffffffffffffff166108fc839081150290604051600060405180830381858888f193505050501580156110c7573d6000803e3d6000fd5b506111b0565b6000600b60008154809291906110e2906122e0565b9190505590506000600960008381526020019081526020016000209050848160000190805190602001906111179291906117d1565b5066038d7ea4c680008461112b919061217f565b8160010181905550828160020160006101000a81548173ffffffffffffffffffffffffffffffffffffffff021916908373ffffffffffffffffffffffffffffffffffffffff16021790555060008160020160146101000a81548160ff0219169083600281111561119e5761119d611ea8565b5b02179055506000816003018190555050505b505050565b6000600b54905090565b60035481565b6060600080600080600060096000888152602001908152602001600020905060008160000180546111f590612020565b80601f016020809104026020016040519081016040528092919081815260200182805461122190612020565b801561126e5780601f106112435761010080835404028352916020019161126e565b820191906000526020600020905b81548152906001019060200180831161125157829003601f168201915b505050505090508082600101548360020160009054906101000a900473ffffffffffffffffffffffffffffffffffffffff168460020160149054906101000a900460ff16856003015496509650965096509650505091939590929450565b60001515600c60019054906101000a900460ff16151514611322576040517f08c379a00000000000000000000000000000000000000000000000000000000081526004016113199061244d565b60405180910390fd5b600c60009054906101000a900460ff16156113db5760006040518060400160405280601181526020017f796f752063616e206f6e6c7920706179200000000000000000000000000000008152509050600061137e600454611624565b9050600061138c83836115f8565b905060045434101581906113d6576040517f08c379a00000000000000000000000000000000000000000000000000000000081526004016113cd9190611953565b60405180910390fd5b505050505b600760405180604001604052803373ffffffffffffffffffffffffffffffffffffffff16815260200134815250908060018154018082558091505060019003906000526020600020906002020160009091909190915060008201518160000160006101000a81548173ffffffffffffffffffffffffffffffffffffffff021916908373ffffffffffffffffffffffffffffffffffffffff1602179055506020820151816001015550506000600a60003373ffffffffffffffffffffffffffffffffffffffff1673ffffffffffffffffffffffffffffffffffffffff16815260200190815260200160002054141561157a57600860008154809291906114df906122e0565b91905055506000600160009054906101000a900473ffffffffffffffffffffffffffffffffffffffff1690508073ffffffffffffffffffffffffffffffffffffffff1663903ba3fa30336040518363ffffffff1660e01b815260040161154692919061246d565b600060405180830381600087803b15801561156057600080fd5b505af1158015611574573d6000803e3d6000fd5b50505050505b34600a60003373ffffffffffffffffffffffffffffffffffffffff1673ffffffffffffffffffffffffffffffffffffffff16815260200190815260200160002060008282546115c99190612496565b9250508190555034600660008282546115e29190612496565b92505081905550565b6000600780549050905090565b6060828260405160200161160d929190612528565b604051602081830303815290604052905092915050565b6060600082141561166c576040518060400160405280600181526020017f300000000000000000000000000000000000000000000000000000000000000081525090506117a8565b600082905060005b6000821461169e578080611687906122e0565b915050600a82611697919061257b565b9150611674565b60008167ffffffffffffffff8111156116ba576116b9611ce2565b5b6040519080825280601f01601f1916602001820160405280156116ec5781602001600182028036833780820191505090505b50905060008290505b600086146117a05760018161170a91906125ac565b90506000600a808861171c919061257b565b611726919061217f565b8761173191906125ac565b603061173d91906125ed565b905060008160f81b90508084848151811061175b5761175a6122b1565b5b60200101907effffffffffffffffffffffffffffffffffffffffffffffffffffffffffffff1916908160001a905350600a88611797919061257b565b975050506116f5565b819450505050505b919050565b50805460008255600202906000526020600020908101906117ce9190611857565b50565b8280546117dd90612020565b90600052602060002090601f0160209004810192826117ff5760008555611846565b82601f1061181857805160ff1916838001178555611846565b82800160010185558215611846579182015b8281111561184557825182559160200191906001019061182a565b5b509050611853919061189d565b5090565b5b8082111561189957600080820160006101000a81549073ffffffffffffffffffffffffffffffffffffffff0219169055600182016000905550600201611858565b5090565b5b808211156118b657600081600090555060010161189e565b5090565b600081519050919050565b600082825260208201905092915050565b60005b838110156118f45780820151818401526020810190506118d9565b83811115611903576000848401525b50505050565b6000601f19601f8301169050919050565b6000611925826118ba565b61192f81856118c5565b935061193f8185602086016118d6565b61194881611909565b840191505092915050565b6000602082019050818103600083015261196d818461191a565b905092915050565b6000819050919050565b61198881611975565b82525050565b60006020820190506119a3600083018461197f565b92915050565b600081519050919050565b600082825260208201905092915050565b6000819050602082019050919050565b600073ffffffffffffffffffffffffffffffffffffffff82169050919050565b6000611a00826119d5565b9050919050565b611a10816119f5565b82525050565b611a1f81611975565b82525050565b604082016000820151611a3b6000850182611a07565b506020820151611a4e6020850182611a16565b50505050565b6000611a608383611a25565b60408301905092915050565b6000602082019050919050565b6000611a84826119a9565b611a8e81856119b4565b9350611a99836119c5565b8060005b83811015611aca578151611ab18882611a54565b9750611abc83611a6c565b925050600181019050611a9d565b5085935050505092915050565b60006020820190508181036000830152611af18184611a79565b905092915050565b611b02816119f5565b82525050565b6000602082019050611b1d6000830184611af9565b92915050565b60008115159050919050565b611b3881611b23565b82525050565b600061018082019050611b54600083018f611af9565b8181036020830152611b66818e61191a565b9050611b75604083018d61197f565b611b82606083018c61197f565b611b8f608083018b61197f565b611b9c60a083018a61197f565b81810360c0830152611bae8189611a79565b9050611bbd60e083018861197f565b611bcb61010083018761197f565b611bd9610120830186611b2f565b611be7610140830185611b2f565b611bf5610160830184611af9565b9d9c50505050505050505050505050565b6000604051905090565b600080fd5b600080fd5b611c2381611975565b8114611c2e57600080fd5b50565b600081359050611c4081611c1a565b92915050565b600060208284031215611c5c57611c5b611c10565b5b6000611c6a84828501611c31565b91505092915050565b60038110611c8057600080fd5b50565b600081359050611c9281611c73565b92915050565b60008060408385031215611caf57611cae611c10565b5b6000611cbd85828601611c31565b9250506020611cce85828601611c83565b9150509250929050565b600080fd5b600080fd5b7f4e487b7100000000000000000000000000000000000000000000000000000000600052604160045260246000fd5b611d1a82611909565b810181811067ffffffffffffffff82111715611d3957611d38611ce2565b5b80604052505050565b6000611d4c611c06565b9050611d588282611d11565b919050565b600067ffffffffffffffff821115611d7857611d77611ce2565b5b611d8182611909565b9050602081019050919050565b82818337600083830152505050565b6000611db0611dab84611d5d565b611d42565b905082815260208101848484011115611dcc57611dcb611cdd565b5b611dd7848285611d8e565b509392505050565b600082601f830112611df457611df3611cd8565b5b8135611e04848260208601611d9d565b91505092915050565b611e16816119f5565b8114611e2157600080fd5b50565b600081359050611e3381611e0d565b92915050565b600080600060608486031215611e5257611e51611c10565b5b600084013567ffffffffffffffff811115611e7057611e6f611c15565b5b611e7c86828701611ddf565b9350506020611e8d86828701611c31565b9250506040611e9e86828701611e24565b9150509250925092565b7f4e487b7100000000000000000000000000000000000000000000000000000000600052602160045260246000fd5b60038110611ee857611ee7611ea8565b5b50565b6000819050611ef982611ed7565b919050565b6000611f0982611eeb565b9050919050565b611f1981611efe565b82525050565b600060a0820190508181036000830152611f39818861191a565b9050611f48602083018761197f565b611f556040830186611af9565b611f626060830185611f10565b611f6f608083018461197f565b9695505050505050565b60008060408385031215611f9057611f8f611c10565b5b600083013567ffffffffffffffff811115611fae57611fad611c15565b5b611fba85828601611ddf565b925050602083013567ffffffffffffffff811115611fdb57611fda611c15565b5b611fe785828601611ddf565b9150509250929050565b7f4e487b7100000000000000000000000000000000000000000000000000000000600052602260045260246000fd5b6000600282049050600182168061203857607f821691505b6020821081141561204c5761204b611ff1565b5b50919050565b7f6f6e6c792066756e64696e67206d616e61676572206f7220706c6174666f726d60008201527f206d616e61676572000000000000000000000000000000000000000000000000602082015250565b60006120ae6028836118c5565b91506120b982612052565b604082019050919050565b600060208201905081810360008301526120dd816120a1565b9050919050565b7f616c72656164792070726f636573736564000000000000000000000000000000600082015250565b600061211a6011836118c5565b9150612125826120e4565b602082019050919050565b600060208201905081810360008301526121498161210d565b9050919050565b7f4e487b7100000000000000000000000000000000000000000000000000000000600052601160045260246000fd5b600061218a82611975565b915061219583611975565b9250817fffffffffffffffffffffffffffffffffffffffffffffffffffffffffffffffff04831182151516156121ce576121cd612150565b5b828202905092915050565b7f6e6f7420656e6f75676820617070726f76616c73000000000000000000000000600082015250565b600061220f6014836118c5565b915061221a826121d9565b602082019050919050565b6000602082019050818103600083015261223e81612202565b9050919050565b7f6e6f7420656e6f756768206d6f6e657900000000000000000000000000000000600082015250565b600061227b6010836118c5565b915061228682612245565b602082019050919050565b600060208201905081810360008301526122aa8161226e565b9050919050565b7f4e487b7100000000000000000000000000000000000000000000000000000000600052603260045260246000fd5b60006122eb82611975565b91507fffffffffffffffffffffffffffffffffffffffffffffffffffffffffffffffff82141561231e5761231d612150565b5b600182019050919050565b7f796f7520617265206e6f7420612070726f6a65637420696e766573746f720000600082015250565b600061235f601e836118c5565b915061236a82612329565b602082019050919050565b6000602082019050818103600083015261238e81612352565b9050919050565b7f796f75206861766520616c726561647920766f74656400000000000000000000600082015250565b60006123cb6016836118c5565b91506123d682612395565b602082019050919050565b600060208201905081810360008301526123fa816123be565b9050919050565b7f616c726561647920656e64656400000000000000000000000000000000000000600082015250565b6000612437600d836118c5565b915061244282612401565b602082019050919050565b600060208201905081810360008301526124668161242a565b9050919050565b60006040820190506124826000830185611af9565b61248f6020830184611af9565b9392505050565b60006124a182611975565b91506124ac83611975565b9250827fffffffffffffffffffffffffffffffffffffffffffffffffffffffffffffffff038211156124e1576124e0612150565b5b828201905092915050565b600081905092915050565b6000612502826118ba565b61250c81856124ec565b935061251c8185602086016118d6565b80840191505092915050565b600061253482856124f7565b915061254082846124f7565b91508190509392505050565b7f4e487b7100000000000000000000000000000000000000000000000000000000600052601260045260246000fd5b600061258682611975565b915061259183611975565b9250826125a1576125a061254c565b5b828204905092915050565b60006125b782611975565b91506125c283611975565b9250828210156125d5576125d4612150565b5b828203905092915050565b600060ff82169050919050565b60006125f8826125e0565b9150612603836125e0565b92508260ff0382111561261957612618612150565b5b82820190509291505056fea2646970667358221220af2e94fe296f904ca63b5abecc1b6e79c10be07de3179d2f3409bd4ead52e56964736f6c634300080a0033",
  "immutableReferences": {},
  "source": "// SPDX-License-Identifier: MIT\npragma solidity ^0.8.0;\n\nimport './FundingFactory.sol';\n\ncontract CrowdFunding {\n\n    address public  manager;\n    address public parent;\n    string public name;\n    uint256 public target;\n    uint256 public price;\n    uint256 public endAt;//seconds\n    uint256 public current;\n    Investor[] investors;\n    uint256 public investorsCount;\n    mapping(uint => Expense) expenses;\n    mapping(address => uint256) investorsMap;\n\n    uint256 expensesCount;\n    bool needConsent;\n    bool ended;\n\n    constructor(string memory _name, uint256 _target, uint256 _price, uint256 _period, address _manager, bool _consent, address _parent){\n        manager = _manager;\n        name = _name;\n        target = _target * 10 ** 15;\n        price = _price * 10 ** 15;\n        endAt = block.timestamp + _period * 86400;\n        needConsent = _consent;\n        parent = _parent;\n\n    }\n\n    struct Expense {\n        string reason;\n        uint256 amount;\n        address receiver;\n        ExpenseStatus status;\n        uint256 approveCount;\n        mapping(address => VoteStatus) voters;\n    }\n    enum ExpenseStatus{\n        Pending, Approved, Rejected\n    }\n    enum VoteStatus{\n        Pending, Approved, Rejected\n    }\n    struct Investor {\n        address addr;\n        uint256 amount;\n    }\n\n    function invest() payable public {\n        require(ended == false, \"already ended\");\n        if (needConsent) {\n            string memory err = \"you can only pay \";\n            string memory priceStr = uintToStr(price);\n            string memory errMsg = strConcat(err, priceStr);\n            require(msg.value >= price, errMsg);\n\n        }\n        investors.push(Investor({addr : msg.sender, amount : msg.value}));\n        if (investorsMap[msg.sender] == 0) {\n            investorsCount++;\n            ContractFactory cf = ContractFactory(parent);\n            cf.joinFunding(address(this), msg.sender);\n        }\n        investorsMap[msg.sender] += msg.value;\n        current += msg.value;\n\n    }\n\n    function getBalance() public view returns (uint256){\n        return address(this).balance;\n    }\n\n    function getInvstors() public view returns (Investor[] memory){\n        return investors;\n    }\n\n    modifier onlyManager {\n        require(msg.sender == manager || msg.sender == parent, 'only funding manager or platform manager');\n        _;\n    }\n    function failRefund() public onlyManager {\n        for (uint256 i = 0; i < investors.length; i++) {\n            payable(investors[i].addr).transfer(price);\n        }\n\n        delete (investors);\n    }\n\n    function vote(uint256 index, VoteStatus r) public {\n        Expense storage expense = expenses[index];\n        require(investorsMap[msg.sender] > 0, \"you are not a project investor\");\n        require(expense.voters[msg.sender] == VoteStatus.Pending, \"you have already voted\");\n        expense.voters[msg.sender] = r;\n        if (r == VoteStatus.Approved) {\n            expense.approveCount++;\n        }\n\n    }\n\n    function applyExpense(string memory _reason, uint _amount, address _receiver) public onlyManager {\n        if (!needConsent) {\n            require(address(this).balance > _amount);\n            payable(_receiver).transfer(_amount);\n            return;\n        }\n\n        uint expenseId = expensesCount++;\n        Expense storage expense = expenses[expenseId];\n        expense.reason = _reason;\n        expense.amount = _amount * 10 ** 15;\n        expense.receiver = _receiver;\n        expense.status = ExpenseStatus.Pending;\n        expense.approveCount = 0;\n    }\n\n    function execExpense(uint256 index) public payable onlyManager {\n        Expense storage expense = expenses[index];\n        require(expense.status == ExpenseStatus.Pending, \"already processed\");\n        require(expense.approveCount * 2 > investorsCount, \"not enough approvals\");\n        require(address(this).balance >= expense.amount, \"not enough money\");\n        expense.status = ExpenseStatus.Approved;\n        payable(expense.receiver).transfer(expense.amount);\n    }\n\n    function terminate() public onlyManager {\n        ended = true;\n    }\n\n    function getInvestorsCount() public view returns (uint256){\n        return investors.length;\n    }\n\n    function getExpenseCount() public view returns (uint256){\n        return expensesCount;\n    }\n\n    function getExpnseByIndex(uint256 _index) public view returns (string memory, uint256, address, ExpenseStatus, uint256){\n        Expense storage e = expenses[_index];\n        string memory reason = e.reason;\n        return (reason, e.amount, e.receiver, e.status, e.approveCount);\n    }\n\n    function getInfo() public view returns (address, string memory, uint256, uint256, uint256, uint256, Investor[] memory, uint256, uint256, bool, bool, address){\n        return (manager, name, target, current, price, endAt, investors, investorsCount, expensesCount, needConsent, ended, address(this));\n\n    }\n\n    function strConcat(string memory a, string memory b) public pure returns (string memory){\n        return string(abi.encodePacked(a, b));\n    }\n\n\n    function uintToStr(uint _i) internal pure returns (string memory _uintAsString) {\n        if (_i == 0) {\n            return \"0\";\n        }\n        uint j = _i;\n        uint len;\n        while (j != 0) {\n            len++;\n            j /= 10;\n        }\n        bytes memory bstr = new bytes(len);\n        uint k = len;\n        while (_i != 0) {\n            k = k - 1;\n            uint8 temp = (48 + uint8(_i - _i / 10 * 10));\n            bytes1 b1 = bytes1(temp);\n            bstr[k] = b1;\n            _i /= 10;\n        }\n        return string(bstr);\n    }\n}\n\n",
  "sourcePath": "/Users/fengbao/Documents/devworkspace/solidity/lottery/contracts/CrowdFunding.sol",
  "compiler": {
    "name": "solc",
    "version": "0.8.10+commit.fc410830.Emscripten.clang"
  },
  "schemaVersion": "3.4.3",
  "updatedAt": "2021-12-17T07:17:01.755Z",
  "devdoc": {
    "kind": "dev",
    "methods": {},
    "version": 1
  },
  "userdoc": {
    "kind": "user",
    "methods": {},
    "version": 1
  }
}