{
  "contractName": "Factory",
  "abi": [
    {
      "inputs": [
        {
          "internalType": "uint256",
          "name": "",
          "type": "uint256"
        }
      ],
      "name": "children",
      "outputs": [
        {
          "internalType": "address",
          "name": "",
          "type": "address"
        }
      ],
      "stateMutability": "view",
      "type": "function",
      "constant": true
    },
    {
      "inputs": [],
      "name": "createContract",
      "outputs": [
        {
          "internalType": "address[]",
          "name": "",
          "type": "address[]"
        },
        {
          "internalType": "uint256",
          "name": "",
          "type": "uint256"
        }
      ],
      "stateMutability": "nonpayable",
      "type": "function"
    },
    {
      "inputs": [],
      "name": "getChildren",
      "outputs": [
        {
          "internalType": "address[]",
          "name": "",
          "type": "address[]"
        }
      ],
      "stateMutability": "view",
      "type": "function",
      "constant": true
    }
  ],
  "bytecode": "0x608060405234801561001057600080fd5b5061052c806100206000396000f3fe608060405234801561001057600080fd5b50600436106100415760003560e01c8063412a5a6d146100465780634892e8e8146100655780637002ce4214610083575b600080fd5b61004e6100b3565b60405161005c9291906103c0565b60405180910390f35b61006d6101de565b60405161007a91906103f0565b60405180910390f35b61009d60048036038101906100989190610443565b61026c565b6040516100aa919061047f565b60405180910390f35b60606000806040516100c4906102ab565b604051809103906000f0801580156100e0573d6000803e3d6000fd5b5090506000819080600181540180825580915050600190039060005260206000200160009091909190916101000a81548173ffffffffffffffffffffffffffffffffffffffff021916908373ffffffffffffffffffffffffffffffffffffffff16021790555060008080549050818054806020026020016040519081016040528092919081815260200182805480156101ce57602002820191906000526020600020905b8160009054906101000a900473ffffffffffffffffffffffffffffffffffffffff1673ffffffffffffffffffffffffffffffffffffffff1681526020019060010190808311610184575b5050505050915092509250509091565b6060600080548060200260200160405190810160405280929190818152602001828054801561026257602002820191906000526020600020905b8160009054906101000a900473ffffffffffffffffffffffffffffffffffffffff1673ffffffffffffffffffffffffffffffffffffffff1681526020019060010190808311610218575b5050505050905090565b6000818154811061027c57600080fd5b906000526020600020016000915054906101000a900473ffffffffffffffffffffffffffffffffffffffff1681565b605c8061049b83390190565b600081519050919050565b600082825260208201905092915050565b6000819050602082019050919050565b600073ffffffffffffffffffffffffffffffffffffffff82169050919050565b600061030e826102e3565b9050919050565b61031e81610303565b82525050565b60006103308383610315565b60208301905092915050565b6000602082019050919050565b6000610354826102b7565b61035e81856102c2565b9350610369836102d3565b8060005b8381101561039a5781516103818882610324565b975061038c8361033c565b92505060018101905061036d565b5085935050505092915050565b6000819050919050565b6103ba816103a7565b82525050565b600060408201905081810360008301526103da8185610349565b90506103e960208301846103b1565b9392505050565b6000602082019050818103600083015261040a8184610349565b905092915050565b600080fd5b610420816103a7565b811461042b57600080fd5b50565b60008135905061043d81610417565b92915050565b60006020828403121561045957610458610412565b5b60006104678482850161042e565b91505092915050565b61047981610303565b82525050565b60006020820190506104946000830184610470565b9291505056fe6080604052348015600f57600080fd5b50603f80601d6000396000f3fe6080604052600080fdfea2646970667358221220ce1a426ea9456e02334da3589411183acaa22ff378c63cbd99c67c727cae4af564736f6c634300080a0033a26469706673582212208e80893bff0329915a03eea811dd6a0c0df88cb80a14981c2ac56c53354e4e9c64736f6c634300080a0033",
  "immutableReferences": {},
  "source": "// SPDX-License-Identifier: MIT\npragma solidity ^0.8.0;\n\ncontract Factory{\n    address[] public children;\n    function createContract() public returns(address[] memory,uint256){\n        Child c = new Child();\n        children.push(address(c));\n        return (children,children.length);\n    }\n    function getChildren() public view returns(address[] memory){\n        return children;\n    }\n}\n\ncontract Child{\n\n}",
  "sourcePath": "/Users/fengbao/Documents/devworkspace/solidity/lottery/contracts/Test.sol",
  "compiler": {
    "name": "solc",
    "version": "0.8.10+commit.fc410830.Emscripten.clang"
  },
  "schemaVersion": "3.4.3",
  "updatedAt": "2021-12-15T08:53:05.293Z",
  "networkType": "ethereum",
  "devdoc": {
    "kind": "dev",
    "methods": {},
    "version": 1
  },
  "userdoc": {
    "kind": "user",
    "methods": {},
    "version": 1
  }
}