{
  "contractName": "Lottery",
  "abi": [
    {
      "inputs": [
        {
          "internalType": "uint256",
          "name": "_target",
          "type": "uint256"
        }
      ],
      "stateMutability": "nonpayable",
      "type": "constructor"
    },
    {
      "inputs": [
        {
          "internalType": "uint256",
          "name": "",
          "type": "uint256"
        }
      ],
      "name": "bettors",
      "outputs": [
        {
          "internalType": "address",
          "name": "addr",
          "type": "address"
        },
        {
          "internalType": "uint256",
          "name": "value",
          "type": "uint256"
        }
      ],
      "stateMutability": "view",
      "type": "function"
    },
    {
      "inputs": [],
      "name": "current",
      "outputs": [
        {
          "internalType": "uint256",
          "name": "",
          "type": "uint256"
        }
      ],
      "stateMutability": "view",
      "type": "function"
    },
    {
      "inputs": [],
      "name": "manager",
      "outputs": [
        {
          "internalType": "address",
          "name": "",
          "type": "address"
        }
      ],
      "stateMutability": "view",
      "type": "function"
    },
    {
      "inputs": [],
      "name": "minimum",
      "outputs": [
        {
          "internalType": "uint256",
          "name": "",
          "type": "uint256"
        }
      ],
      "stateMutability": "view",
      "type": "function"
    },
    {
      "inputs": [
        {
          "internalType": "uint256",
          "name": "",
          "type": "uint256"
        }
      ],
      "name": "players",
      "outputs": [
        {
          "internalType": "address",
          "name": "",
          "type": "address"
        }
      ],
      "stateMutability": "view",
      "type": "function"
    },
    {
      "inputs": [],
      "name": "round",
      "outputs": [
        {
          "internalType": "uint256",
          "name": "",
          "type": "uint256"
        }
      ],
      "stateMutability": "view",
      "type": "function"
    },
    {
      "inputs": [],
      "name": "target",
      "outputs": [
        {
          "internalType": "uint256",
          "name": "",
          "type": "uint256"
        }
      ],
      "stateMutability": "view",
      "type": "function"
    },
    {
      "inputs": [
        {
          "internalType": "uint256",
          "name": "",
          "type": "uint256"
        }
      ],
      "name": "winners",
      "outputs": [
        {
          "internalType": "uint256",
          "name": "round",
          "type": "uint256"
        },
        {
          "internalType": "address",
          "name": "addr",
          "type": "address"
        }
      ],
      "stateMutability": "view",
      "type": "function"
    },
    {
      "inputs": [],
      "name": "bet",
      "outputs": [],
      "stateMutability": "payable",
      "type": "function"
    },
    {
      "inputs": [],
      "name": "getBalance",
      "outputs": [
        {
          "internalType": "uint256",
          "name": "",
          "type": "uint256"
        }
      ],
      "stateMutability": "view",
      "type": "function"
    },
    {
      "inputs": [],
      "name": "getPlayers",
      "outputs": [
        {
          "internalType": "address[]",
          "name": "",
          "type": "address[]"
        }
      ],
      "stateMutability": "view",
      "type": "function"
    },
    {
      "inputs": [],
      "name": "getBettors",
      "outputs": [
        {
          "components": [
            {
              "internalType": "address",
              "name": "addr",
              "type": "address"
            },
            {
              "internalType": "uint256",
              "name": "value",
              "type": "uint256"
            }
          ],
          "internalType": "struct Lottery.Bettor[]",
          "name": "",
          "type": "tuple[]"
        }
      ],
      "stateMutability": "view",
      "type": "function"
    },
    {
      "inputs": [],
      "name": "getWinners",
      "outputs": [
        {
          "components": [
            {
              "internalType": "uint256",
              "name": "round",
              "type": "uint256"
            },
            {
              "internalType": "address",
              "name": "addr",
              "type": "address"
            }
          ],
          "internalType": "struct Lottery.Winner[]",
          "name": "",
          "type": "tuple[]"
        }
      ],
      "stateMutability": "view",
      "type": "function"
    },
    {
      "inputs": [
        {
          "internalType": "uint256",
          "name": "_length",
          "type": "uint256"
        }
      ],
      "name": "rand",
      "outputs": [
        {
          "internalType": "uint256",
          "name": "",
          "type": "uint256"
        }
      ],
      "stateMutability": "view",
      "type": "function"
    },
    {
      "inputs": [],
      "name": "draw",
      "outputs": [],
      "stateMutability": "payable",
      "type": "function"
    }
  ],
  "bytecode": "0x60806040523480156200001157600080fd5b5060405162001759380380620017598339818101604052810190620000379190620000e3565b33600360006101000a81548173ffffffffffffffffffffffffffffffffffffffff021916908373ffffffffffffffffffffffffffffffffffffffff16021790555066038d7ea4c680006000819055506000548162000096919062000144565b60018190555050620001a5565b600080fd5b6000819050919050565b620000bd81620000a8565b8114620000c957600080fd5b50565b600081519050620000dd81620000b2565b92915050565b600060208284031215620000fc57620000fb620000a3565b5b60006200010c84828501620000cc565b91505092915050565b7f4e487b7100000000000000000000000000000000000000000000000000000000600052601160045260246000fd5b60006200015182620000a8565b91506200015e83620000a8565b9250817fffffffffffffffffffffffffffffffffffffffffffffffffffffffffffffffff04831182151516156200019a576200019962000115565b5b828202905092915050565b6115a480620001b56000396000f3fe6080604052600436106100e85760003560e01c806352d6804d1161008a578063d4b8399211610059578063d4b83992146102bc578063df15c37e146102e7578063f71d96cb14610312578063ffd4493c1461034f576100e8565b806352d6804d146101fd5780638b5b9ccc146102285780639fa6a6e314610253578063a2fb11751461027e576100e8565b8063146ca531116100c6578063146ca5311461012c5780632530c905146101575780633482b64414610194578063481c6a75146101d2576100e8565b80630eecae21146100ed57806311610c25146100f757806312065fe014610101575b600080fd5b6100f561037a565b005b6100ff61059f565b005b34801561010d57600080fd5b5061011661084f565b6040516101239190610cff565b60405180910390f35b34801561013857600080fd5b50610141610857565b60405161014e9190610cff565b60405180910390f35b34801561016357600080fd5b5061017e60048036038101906101799190610d4b565b61085d565b60405161018b9190610cff565b60405180910390f35b3480156101a057600080fd5b506101bb60048036038101906101b69190610d4b565b6108a9565b6040516101c9929190610db9565b60405180910390f35b3480156101de57600080fd5b506101e76108fd565b6040516101f49190610de2565b60405180910390f35b34801561020957600080fd5b50610212610923565b60405161021f9190610cff565b60405180910390f35b34801561023457600080fd5b5061023d610929565b60405161024a9190610ebb565b60405180910390f35b34801561025f57600080fd5b506102686109b7565b6040516102759190610cff565b60405180910390f35b34801561028a57600080fd5b506102a560048036038101906102a09190610d4b565b6109bd565b6040516102b3929190610edd565b60405180910390f35b3480156102c857600080fd5b506102d1610a11565b6040516102de9190610cff565b60405180910390f35b3480156102f357600080fd5b506102fc610a17565b6040516103099190610ff3565b60405180910390f35b34801561031e57600080fd5b5061033960048036038101906103349190610d4b565b610ad6565b6040516103469190610de2565b60405180910390f35b34801561035b57600080fd5b50610364610b15565b60405161037191906110f3565b60405180910390f35b6000600461038c60048054905061085d565b8154811061039d5761039c611115565b5b9060005260206000200160009054906101000a900473ffffffffffffffffffffffffffffffffffffffff169050600060646063476103db9190611173565b6103e591906111fc565b90508173ffffffffffffffffffffffffffffffffffffffff166108fc829081150290604051600060405180830381858888f1935050505015801561042d573d6000803e3d6000fd5b50600360009054906101000a900473ffffffffffffffffffffffffffffffffffffffff1673ffffffffffffffffffffffffffffffffffffffff166108fc479081150290604051600060405180830381858888f19350505050158015610496573d6000803e3d6000fd5b50600460006104a59190610bd4565b600560006104b39190610bf5565b6006604051806040016040528060075481526020018473ffffffffffffffffffffffffffffffffffffffff1681525090806001815401808255809150506001900390600052602060002090600202016000909190919091506000820151816000015560208201518160010160006101000a81548173ffffffffffffffffffffffffffffffffffffffff021916908373ffffffffffffffffffffffffffffffffffffffff16021790555050506032600680549050111561057b576006600061057a9190610c19565b5b6000600281905550600760008154809291906105969061122d565b91905055505050565b60008054346105ae9190611276565b146105ee576040517f08c379a00000000000000000000000000000000000000000000000000000000081526004016105e59061132a565b60405180910390fd5b60003411604051602001610601906113c7565b60405160208183030381529060405290610651576040517f08c379a00000000000000000000000000000000000000000000000000000000081526004016106489190611464565b60405180910390fd5b506000349050600154600254346106689190611486565b11156106e2573373ffffffffffffffffffffffffffffffffffffffff166108fc600154600254346106999190611486565b6106a391906114dc565b9081150290604051600060405180830381858888f193505050501580156106ce573d6000803e3d6000fd5b506002546001546106df91906114dc565b90505b60008054826106f191906111fc565b905060005b81811015610774576004339080600181540180825580915050600190039060005260206000200160009091909190916101000a81548173ffffffffffffffffffffffffffffffffffffffff021916908373ffffffffffffffffffffffffffffffffffffffff160217905550808061076c9061122d565b9150506106f6565b50600560405180604001604052803373ffffffffffffffffffffffffffffffffffffffff16815260200134815250908060018154018082558091505060019003906000526020600020906002020160009091909190915060008201518160000160006101000a81548173ffffffffffffffffffffffffffffffffffffffff021916908373ffffffffffffffffffffffffffffffffffffffff16021790555060208201518160010155505034600260008282546108309190611486565b925050819055506001546002541061084b5761084a61037a565b5b5050565b600047905090565b60075481565b600080444260048054905060405160200161087a93929190611531565b6040516020818303038152906040528051906020012060001c905082816108a19190611276565b915050919050565b600581815481106108b957600080fd5b90600052602060002090600202016000915090508060000160009054906101000a900473ffffffffffffffffffffffffffffffffffffffff16908060010154905082565b600360009054906101000a900473ffffffffffffffffffffffffffffffffffffffff1681565b60005481565b606060048054806020026020016040519081016040528092919081815260200182805480156109ad57602002820191906000526020600020905b8160009054906101000a900473ffffffffffffffffffffffffffffffffffffffff1673ffffffffffffffffffffffffffffffffffffffff1681526020019060010190808311610963575b5050505050905090565b60025481565b600681815481106109cd57600080fd5b90600052602060002090600202016000915090508060000154908060010160009054906101000a900473ffffffffffffffffffffffffffffffffffffffff16905082565b60015481565b60606006805480602002602001604051908101604052809291908181526020016000905b82821015610acd5783829060005260206000209060020201604051806040016040529081600082015481526020016001820160009054906101000a900473ffffffffffffffffffffffffffffffffffffffff1673ffffffffffffffffffffffffffffffffffffffff1673ffffffffffffffffffffffffffffffffffffffff168152505081526020019060010190610a3b565b50505050905090565b60048181548110610ae657600080fd5b906000526020600020016000915054906101000a900473ffffffffffffffffffffffffffffffffffffffff1681565b60606005805480602002602001604051908101604052809291908181526020016000905b82821015610bcb57838290600052602060002090600202016040518060400160405290816000820160009054906101000a900473ffffffffffffffffffffffffffffffffffffffff1673ffffffffffffffffffffffffffffffffffffffff1673ffffffffffffffffffffffffffffffffffffffff16815260200160018201548152505081526020019060010190610b39565b50505050905090565b5080546000825590600052602060002090810190610bf29190610c3d565b50565b5080546000825560020290600052602060002090810190610c169190610c5a565b50565b5080546000825560020290600052602060002090810190610c3a9190610ca0565b50565b5b80821115610c56576000816000905550600101610c3e565b5090565b5b80821115610c9c57600080820160006101000a81549073ffffffffffffffffffffffffffffffffffffffff0219169055600182016000905550600201610c5b565b5090565b5b80821115610ce2576000808201600090556001820160006101000a81549073ffffffffffffffffffffffffffffffffffffffff021916905550600201610ca1565b5090565b6000819050919050565b610cf981610ce6565b82525050565b6000602082019050610d146000830184610cf0565b92915050565b600080fd5b610d2881610ce6565b8114610d3357600080fd5b50565b600081359050610d4581610d1f565b92915050565b600060208284031215610d6157610d60610d1a565b5b6000610d6f84828501610d36565b91505092915050565b600073ffffffffffffffffffffffffffffffffffffffff82169050919050565b6000610da382610d78565b9050919050565b610db381610d98565b82525050565b6000604082019050610dce6000830185610daa565b610ddb6020830184610cf0565b9392505050565b6000602082019050610df76000830184610daa565b92915050565b600081519050919050565b600082825260208201905092915050565b6000819050602082019050919050565b610e3281610d98565b82525050565b6000610e448383610e29565b60208301905092915050565b6000602082019050919050565b6000610e6882610dfd565b610e728185610e08565b9350610e7d83610e19565b8060005b83811015610eae578151610e958882610e38565b9750610ea083610e50565b925050600181019050610e81565b5085935050505092915050565b60006020820190508181036000830152610ed58184610e5d565b905092915050565b6000604082019050610ef26000830185610cf0565b610eff6020830184610daa565b9392505050565b600081519050919050565b600082825260208201905092915050565b6000819050602082019050919050565b610f3b81610ce6565b82525050565b604082016000820151610f576000850182610f32565b506020820151610f6a6020850182610e29565b50505050565b6000610f7c8383610f41565b60408301905092915050565b6000602082019050919050565b6000610fa082610f06565b610faa8185610f11565b9350610fb583610f22565b8060005b83811015610fe6578151610fcd8882610f70565b9750610fd883610f88565b925050600181019050610fb9565b5085935050505092915050565b6000602082019050818103600083015261100d8184610f95565b905092915050565b600081519050919050565b600082825260208201905092915050565b6000819050602082019050919050565b6040820160008201516110576000850182610e29565b50602082015161106a6020850182610f32565b50505050565b600061107c8383611041565b60408301905092915050565b6000602082019050919050565b60006110a082611015565b6110aa8185611020565b93506110b583611031565b8060005b838110156110e65781516110cd8882611070565b97506110d883611088565b9250506001810190506110b9565b5085935050505092915050565b6000602082019050818103600083015261110d8184611095565b905092915050565b7f4e487b7100000000000000000000000000000000000000000000000000000000600052603260045260246000fd5b7f4e487b7100000000000000000000000000000000000000000000000000000000600052601160045260246000fd5b600061117e82610ce6565b915061118983610ce6565b9250817fffffffffffffffffffffffffffffffffffffffffffffffffffffffffffffffff04831182151516156111c2576111c1611144565b5b828202905092915050565b7f4e487b7100000000000000000000000000000000000000000000000000000000600052601260045260246000fd5b600061120782610ce6565b915061121283610ce6565b925082611222576112216111cd565b5b828204905092915050565b600061123882610ce6565b91507fffffffffffffffffffffffffffffffffffffffffffffffffffffffffffffffff82141561126b5761126a611144565b5b600182019050919050565b600061128182610ce6565b915061128c83610ce6565b92508261129c5761129b6111cd565b5b828206905092915050565b600082825260208201905092915050565b7f596f757220626574206d75737420626520616e20696e7465676572206d756c7460008201527f69706c65206f6620312046696e6e657900000000000000000000000000000000602082015250565b60006113146030836112a7565b915061131f826112b8565b604082019050919050565b6000602082019050818103600083015261134381611307565b9050919050565b600081905092915050565b7f596f757220626574206d757374206772656174207468656e20312046696e6e6560008201527f79202046696e6e65790000000000000000000000000000000000000000000000602082015250565b60006113b160298361134a565b91506113bc82611355565b602982019050919050565b60006113d2826113a4565b9150819050919050565b600081519050919050565b60005b838110156114055780820151818401526020810190506113ea565b83811115611414576000848401525b50505050565b6000601f19601f8301169050919050565b6000611436826113dc565b61144081856112a7565b93506114508185602086016113e7565b6114598161141a565b840191505092915050565b6000602082019050818103600083015261147e818461142b565b905092915050565b600061149182610ce6565b915061149c83610ce6565b9250827fffffffffffffffffffffffffffffffffffffffffffffffffffffffffffffffff038211156114d1576114d0611144565b5b828201905092915050565b60006114e782610ce6565b91506114f283610ce6565b92508282101561150557611504611144565b5b828203905092915050565b6000819050919050565b61152b61152682610ce6565b611510565b82525050565b600061153d828661151a565b60208201915061154d828561151a565b60208201915061155d828461151a565b60208201915081905094935050505056fea264697066735822122044a19c66773753c5f8334b376dd00a6308da1843f248e2c66ccb19573d56c45f64736f6c634300080a0033",
  "immutableReferences": {},
  "source": "// SPDX-License-Identifier: MIT\npragma solidity ^0.8.0;\n\n//1szabo\ncontract Lottery {\n    uint256 public minimum;\n    uint256 public target;\n    uint256 public current;\n    address  public manager;\n    address[] public players;\n    Bettor[] public bettors;\n    Winner[] public winners;\n    uint256 public round;\n\n    struct Bettor {\n        address addr;\n        uint256 value;\n    }\n\n    struct Winner {\n        uint256 round;\n        address addr;\n    }\n\n    constructor(uint256 _target) {\n        manager = msg.sender;\n        minimum = 10 ** 15;\n        target = _target * minimum;\n    }\n    function bet() public payable {\n        require(msg.value % (minimum) == 0, \"Your bet must be an integer multiple of 1 Finney\");\n        require(msg.value > 0, string(bytes.concat(\"Your bet must great then 1 Finney  Finney\")));\n        uint256 value = msg.value;\n        if (msg.value + current > target) {\n            payable(msg.sender).transfer(msg.value + current - target);\n            value = target - current;\n        }\n        uint num = value / (minimum);\n        for (uint i = 0; i < num; i++) {\n            players.push(msg.sender);\n        }\n        bettors.push(Bettor({addr : msg.sender, value : msg.value}));\n        current += msg.value;\n        if (current >= target) {\n            draw();\n        }\n    }\n\n    function getBalance() public view returns (uint256){\n        return address(this).balance;\n    }\n\n    function getPlayers() public view returns (address[] memory){\n        return players;\n    }\n\n    function getBettors() public view returns (Bettor[] memory){\n        return bettors;\n    }\n\n    function getWinners() public view returns (Winner[] memory){\n        return winners;\n    }\n\n    function rand(uint256 _length) public view returns (uint256) {\n        uint256 random = uint256(keccak256(abi.encodePacked(block.difficulty, block.timestamp, players.length)));\n        return random % _length;\n    }\n\n    function draw() public payable {\n        address winner = players[rand(players.length)];\n        uint256 prize = address(this).balance * 99 / 100;\n        payable(winner).transfer(prize);\n        payable(manager).transfer(address(this).balance);\n        delete players;\n        delete bettors;\n        winners.push(Winner(round, winner));\n        if (winners.length > 50) {\n            delete winners;\n        }\n        current = 0;\n        round++;\n    }\n}\n",
  "sourcePath": "/Users/fengbao/Documents/devworkspace/solidity/lottery/contracts/Lottery.sol",
  "compiler": {
    "name": "solc",
    "version": "0.8.10+commit.fc410830.Emscripten.clang"
  },
  "schemaVersion": "3.4.3",
  "updatedAt": "2021-12-14T08:46:31.489Z",
  "devdoc": {
    "kind": "dev",
    "methods": {},
    "version": 1
  },
  "userdoc": {
    "kind": "user",
    "methods": {},
    "version": 1
  }
}